{
	"LocalAggregator.sol": {
		"LocalAggregator": {
			"abi": [
				{
					"inputs": [],
					"name": "decimals",
					"outputs": [
						{
							"internalType": "uint8",
							"name": "",
							"type": "uint8"
						}
					],
					"stateMutability": "view",
					"type": "function"
				},
				{
					"inputs": [],
					"name": "description",
					"outputs": [
						{
							"internalType": "string",
							"name": "",
							"type": "string"
						}
					],
					"stateMutability": "view",
					"type": "function"
				},
				{
					"inputs": [
						{
							"internalType": "uint80",
							"name": "_roundId",
							"type": "uint80"
						}
					],
					"name": "getRoundData",
					"outputs": [
						{
							"internalType": "uint80",
							"name": "roundId",
							"type": "uint80"
						},
						{
							"internalType": "int256",
							"name": "answer",
							"type": "int256"
						},
						{
							"internalType": "uint256",
							"name": "startedAt",
							"type": "uint256"
						},
						{
							"internalType": "uint256",
							"name": "updatedAt",
							"type": "uint256"
						},
						{
							"internalType": "uint80",
							"name": "answeredInRound",
							"type": "uint80"
						}
					],
					"stateMutability": "view",
					"type": "function"
				},
				{
					"inputs": [],
					"name": "latestRoundData",
					"outputs": [
						{
							"internalType": "uint80",
							"name": "roundId",
							"type": "uint80"
						},
						{
							"internalType": "int256",
							"name": "answer",
							"type": "int256"
						},
						{
							"internalType": "uint256",
							"name": "startedAt",
							"type": "uint256"
						},
						{
							"internalType": "uint256",
							"name": "updatedAt",
							"type": "uint256"
						},
						{
							"internalType": "uint80",
							"name": "answeredInRound",
							"type": "uint80"
						}
					],
					"stateMutability": "view",
					"type": "function"
				},
				{
					"inputs": [],
					"name": "version",
					"outputs": [
						{
							"internalType": "uint256",
							"name": "",
							"type": "uint256"
						}
					],
					"stateMutability": "view",
					"type": "function"
				}
			],
			"devdoc": {
				"kind": "dev",
				"methods": {},
				"version": 1
			},
			"evm": {
				"assembly": "    /* \"LocalAggregator.sol\":135:755  contract LocalAggregator is AggregatorV3Interface {... */\n  mstore(0x40, 0x80)\n  callvalue\n  dup1\n  iszero\n  tag_1\n  jumpi\n  revert(0x00, 0x00)\ntag_1:\n  pop\n  dataSize(sub_0)\n  dup1\n  dataOffset(sub_0)\n  0x00\n  codecopy\n  0x00\n  return\nstop\n\nsub_0: assembly {\n        /* \"LocalAggregator.sol\":135:755  contract LocalAggregator is AggregatorV3Interface {... */\n      mstore(0x40, 0x80)\n      callvalue\n      dup1\n      iszero\n      tag_1\n      jumpi\n      revert(0x00, 0x00)\n    tag_1:\n      pop\n      jumpi(tag_2, lt(calldatasize, 0x04))\n      shr(0xe0, calldataload(0x00))\n      dup1\n      0x313ce567\n      eq\n      tag_3\n      jumpi\n      dup1\n      0x54fd4d50\n      eq\n      tag_4\n      jumpi\n      dup1\n      0x7284e416\n      eq\n      tag_5\n      jumpi\n      dup1\n      0x9a6fc8f5\n      eq\n      tag_6\n      jumpi\n      dup1\n      0xfeaf968c\n      eq\n      tag_7\n      jumpi\n    tag_2:\n      revert(0x00, 0x00)\n        /* \"LocalAggregator.sol\":191:249  function decimals() external view returns (uint8) {... */\n    tag_3:\n      tag_8\n      tag_9\n      jump\t// in\n    tag_8:\n      mload(0x40)\n      tag_10\n      swap2\n      swap1\n      tag_11\n      jump\t// in\n    tag_10:\n      mload(0x40)\n      dup1\n      swap2\n      sub\n      swap1\n      return\n        /* \"LocalAggregator.sol\":330:389  function version() external view returns (uint256) {... */\n    tag_4:\n      tag_12\n      tag_13\n      jump\t// in\n    tag_12:\n      mload(0x40)\n      tag_14\n      swap2\n      swap1\n      tag_15\n      jump\t// in\n    tag_14:\n      mload(0x40)\n      dup1\n      swap2\n      sub\n      swap1\n      return\n        /* \"LocalAggregator.sol\":255:324  function description() external view returns (string memory) {... */\n    tag_5:\n      tag_16\n      tag_17\n      jump\t// in\n    tag_16:\n      mload(0x40)\n      tag_18\n      swap2\n      swap1\n      tag_19\n      jump\t// in\n    tag_18:\n      mload(0x40)\n      dup1\n      swap2\n      sub\n      swap1\n      return\n        /* \"LocalAggregator.sol\":395:572  function getRoundData(... */\n    tag_6:\n      tag_20\n      0x04\n      dup1\n      calldatasize\n      sub\n      dup2\n      add\n      swap1\n      tag_21\n      swap2\n      swap1\n      tag_22\n      jump\t// in\n    tag_21:\n      tag_23\n      jump\t// in\n    tag_20:\n      mload(0x40)\n      tag_24\n      swap6\n      swap5\n      swap4\n      swap3\n      swap2\n      swap1\n      tag_25\n      jump\t// in\n    tag_24:\n      mload(0x40)\n      dup1\n      swap2\n      sub\n      swap1\n      return\n        /* \"LocalAggregator.sol\":578:753  function latestRoundData()... */\n    tag_7:\n      tag_26\n      tag_27\n      jump\t// in\n    tag_26:\n      mload(0x40)\n      tag_28\n      swap6\n      swap5\n      swap4\n      swap3\n      swap2\n      swap1\n      tag_25\n      jump\t// in\n    tag_28:\n      mload(0x40)\n      dup1\n      swap2\n      sub\n      swap1\n      return\n        /* \"LocalAggregator.sol\":191:249  function decimals() external view returns (uint8) {... */\n    tag_9:\n        /* \"LocalAggregator.sol\":234:239  uint8 */\n      0x00\n        /* \"LocalAggregator.sol\":191:249  function decimals() external view returns (uint8) {... */\n      swap1\n      jump\t// out\n        /* \"LocalAggregator.sol\":330:389  function version() external view returns (uint256) {... */\n    tag_13:\n        /* \"LocalAggregator.sol\":372:379  uint256 */\n      0x00\n        /* \"LocalAggregator.sol\":330:389  function version() external view returns (uint256) {... */\n      swap1\n      jump\t// out\n        /* \"LocalAggregator.sol\":255:324  function description() external view returns (string memory) {... */\n    tag_17:\n        /* \"LocalAggregator.sol\":301:314  string memory */\n      0x60\n        /* \"LocalAggregator.sol\":255:324  function description() external view returns (string memory) {... */\n      swap1\n      jump\t// out\n        /* \"LocalAggregator.sol\":395:572  function getRoundData(... */\n    tag_23:\n        /* \"LocalAggregator.sol\":471:485  uint80 roundId */\n      0x00\n        /* \"LocalAggregator.sol\":487:500  int256 answer */\n      0x00\n        /* \"LocalAggregator.sol\":502:519  uint256 startedAt */\n      0x00\n        /* \"LocalAggregator.sol\":521:538  uint256 updatedAt */\n      0x00\n        /* \"LocalAggregator.sol\":540:562  uint80 answeredInRound */\n      0x00\n        /* \"LocalAggregator.sol\":395:572  function getRoundData(... */\n      swap2\n      swap4\n      swap6\n      swap1\n      swap3\n      swap5\n      pop\n      jump\t// out\n        /* \"LocalAggregator.sol\":578:753  function latestRoundData()... */\n    tag_27:\n        /* \"LocalAggregator.sol\":652:666  uint80 roundId */\n      0x00\n        /* \"LocalAggregator.sol\":668:681  int256 answer */\n      0x00\n        /* \"LocalAggregator.sol\":683:700  uint256 startedAt */\n      0x00\n        /* \"LocalAggregator.sol\":702:719  uint256 updatedAt */\n      0x00\n        /* \"LocalAggregator.sol\":721:743  uint80 answeredInRound */\n      0x00\n        /* \"LocalAggregator.sol\":578:753  function latestRoundData()... */\n      swap1\n      swap2\n      swap3\n      swap4\n      swap5\n      jump\t// out\n        /* \"#utility.yul\":7:93   */\n    tag_34:\n        /* \"#utility.yul\":42:49   */\n      0x00\n        /* \"#utility.yul\":82:86   */\n      0xff\n        /* \"#utility.yul\":75:80   */\n      dup3\n        /* \"#utility.yul\":71:87   */\n      and\n        /* \"#utility.yul\":60:87   */\n      swap1\n      pop\n        /* \"#utility.yul\":7:93   */\n      swap2\n      swap1\n      pop\n      jump\t// out\n        /* \"#utility.yul\":99:211   */\n    tag_35:\n        /* \"#utility.yul\":182:204   */\n      tag_55\n        /* \"#utility.yul\":198:203   */\n      dup2\n        /* \"#utility.yul\":182:204   */\n      tag_34\n      jump\t// in\n    tag_55:\n        /* \"#utility.yul\":177:180   */\n      dup3\n        /* \"#utility.yul\":170:205   */\n      mstore\n        /* \"#utility.yul\":99:211   */\n      pop\n      pop\n      jump\t// out\n        /* \"#utility.yul\":217:431   */\n    tag_11:\n        /* \"#utility.yul\":306:310   */\n      0x00\n        /* \"#utility.yul\":344:346   */\n      0x20\n        /* \"#utility.yul\":333:342   */\n      dup3\n        /* \"#utility.yul\":329:347   */\n      add\n        /* \"#utility.yul\":321:347   */\n      swap1\n      pop\n        /* \"#utility.yul\":357:424   */\n      tag_57\n        /* \"#utility.yul\":421:422   */\n      0x00\n        /* \"#utility.yul\":410:419   */\n      dup4\n        /* \"#utility.yul\":406:423   */\n      add\n        /* \"#utility.yul\":397:403   */\n      dup5\n        /* \"#utility.yul\":357:424   */\n      tag_35\n      jump\t// in\n    tag_57:\n        /* \"#utility.yul\":217:431   */\n      swap3\n      swap2\n      pop\n      pop\n      jump\t// out\n        /* \"#utility.yul\":437:514   */\n    tag_36:\n        /* \"#utility.yul\":474:481   */\n      0x00\n        /* \"#utility.yul\":503:508   */\n      dup2\n        /* \"#utility.yul\":492:508   */\n      swap1\n      pop\n        /* \"#utility.yul\":437:514   */\n      swap2\n      swap1\n      pop\n      jump\t// out\n        /* \"#utility.yul\":520:638   */\n    tag_37:\n        /* \"#utility.yul\":607:631   */\n      tag_60\n        /* \"#utility.yul\":625:630   */\n      dup2\n        /* \"#utility.yul\":607:631   */\n      tag_36\n      jump\t// in\n    tag_60:\n        /* \"#utility.yul\":602:605   */\n      dup3\n        /* \"#utility.yul\":595:632   */\n      mstore\n        /* \"#utility.yul\":520:638   */\n      pop\n      pop\n      jump\t// out\n        /* \"#utility.yul\":644:866   */\n    tag_15:\n        /* \"#utility.yul\":737:741   */\n      0x00\n        /* \"#utility.yul\":775:777   */\n      0x20\n        /* \"#utility.yul\":764:773   */\n      dup3\n        /* \"#utility.yul\":760:778   */\n      add\n        /* \"#utility.yul\":752:778   */\n      swap1\n      pop\n        /* \"#utility.yul\":788:859   */\n      tag_62\n        /* \"#utility.yul\":856:857   */\n      0x00\n        /* \"#utility.yul\":845:854   */\n      dup4\n        /* \"#utility.yul\":841:858   */\n      add\n        /* \"#utility.yul\":832:838   */\n      dup5\n        /* \"#utility.yul\":788:859   */\n      tag_37\n      jump\t// in\n    tag_62:\n        /* \"#utility.yul\":644:866   */\n      swap3\n      swap2\n      pop\n      pop\n      jump\t// out\n        /* \"#utility.yul\":872:971   */\n    tag_38:\n        /* \"#utility.yul\":924:930   */\n      0x00\n        /* \"#utility.yul\":958:963   */\n      dup2\n        /* \"#utility.yul\":952:964   */\n      mload\n        /* \"#utility.yul\":942:964   */\n      swap1\n      pop\n        /* \"#utility.yul\":872:971   */\n      swap2\n      swap1\n      pop\n      jump\t// out\n        /* \"#utility.yul\":977:1146   */\n    tag_39:\n        /* \"#utility.yul\":1061:1072   */\n      0x00\n        /* \"#utility.yul\":1095:1101   */\n      dup3\n        /* \"#utility.yul\":1090:1093   */\n      dup3\n        /* \"#utility.yul\":1083:1102   */\n      mstore\n        /* \"#utility.yul\":1135:1139   */\n      0x20\n        /* \"#utility.yul\":1130:1133   */\n      dup3\n        /* \"#utility.yul\":1126:1140   */\n      add\n        /* \"#utility.yul\":1111:1140   */\n      swap1\n      pop\n        /* \"#utility.yul\":977:1146   */\n      swap3\n      swap2\n      pop\n      pop\n      jump\t// out\n        /* \"#utility.yul\":1152:1291   */\n    tag_40:\n        /* \"#utility.yul\":1241:1247   */\n      dup3\n        /* \"#utility.yul\":1236:1239   */\n      dup2\n        /* \"#utility.yul\":1231:1234   */\n      dup4\n        /* \"#utility.yul\":1225:1248   */\n      mcopy\n        /* \"#utility.yul\":1282:1283   */\n      0x00\n        /* \"#utility.yul\":1273:1279   */\n      dup4\n        /* \"#utility.yul\":1268:1271   */\n      dup4\n        /* \"#utility.yul\":1264:1280   */\n      add\n        /* \"#utility.yul\":1257:1284   */\n      mstore\n        /* \"#utility.yul\":1152:1291   */\n      pop\n      pop\n      pop\n      jump\t// out\n        /* \"#utility.yul\":1297:1399   */\n    tag_41:\n        /* \"#utility.yul\":1338:1344   */\n      0x00\n        /* \"#utility.yul\":1389:1391   */\n      0x1f\n        /* \"#utility.yul\":1385:1392   */\n      not\n        /* \"#utility.yul\":1380:1382   */\n      0x1f\n        /* \"#utility.yul\":1373:1378   */\n      dup4\n        /* \"#utility.yul\":1369:1383   */\n      add\n        /* \"#utility.yul\":1365:1393   */\n      and\n        /* \"#utility.yul\":1355:1393   */\n      swap1\n      pop\n        /* \"#utility.yul\":1297:1399   */\n      swap2\n      swap1\n      pop\n      jump\t// out\n        /* \"#utility.yul\":1405:1782   */\n    tag_42:\n        /* \"#utility.yul\":1493:1496   */\n      0x00\n        /* \"#utility.yul\":1521:1560   */\n      tag_68\n        /* \"#utility.yul\":1554:1559   */\n      dup3\n        /* \"#utility.yul\":1521:1560   */\n      tag_38\n      jump\t// in\n    tag_68:\n        /* \"#utility.yul\":1576:1647   */\n      tag_69\n        /* \"#utility.yul\":1640:1646   */\n      dup2\n        /* \"#utility.yul\":1635:1638   */\n      dup6\n        /* \"#utility.yul\":1576:1647   */\n      tag_39\n      jump\t// in\n    tag_69:\n        /* \"#utility.yul\":1569:1647   */\n      swap4\n      pop\n        /* \"#utility.yul\":1656:1721   */\n      tag_70\n        /* \"#utility.yul\":1714:1720   */\n      dup2\n        /* \"#utility.yul\":1709:1712   */\n      dup6\n        /* \"#utility.yul\":1702:1706   */\n      0x20\n        /* \"#utility.yul\":1695:1700   */\n      dup7\n        /* \"#utility.yul\":1691:1707   */\n      add\n        /* \"#utility.yul\":1656:1721   */\n      tag_40\n      jump\t// in\n    tag_70:\n        /* \"#utility.yul\":1746:1775   */\n      tag_71\n        /* \"#utility.yul\":1768:1774   */\n      dup2\n        /* \"#utility.yul\":1746:1775   */\n      tag_41\n      jump\t// in\n    tag_71:\n        /* \"#utility.yul\":1741:1744   */\n      dup5\n        /* \"#utility.yul\":1737:1776   */\n      add\n        /* \"#utility.yul\":1730:1776   */\n      swap2\n      pop\n        /* \"#utility.yul\":1497:1782   */\n      pop\n        /* \"#utility.yul\":1405:1782   */\n      swap3\n      swap2\n      pop\n      pop\n      jump\t// out\n        /* \"#utility.yul\":1788:2101   */\n    tag_19:\n        /* \"#utility.yul\":1901:1905   */\n      0x00\n        /* \"#utility.yul\":1939:1941   */\n      0x20\n        /* \"#utility.yul\":1928:1937   */\n      dup3\n        /* \"#utility.yul\":1924:1942   */\n      add\n        /* \"#utility.yul\":1916:1942   */\n      swap1\n      pop\n        /* \"#utility.yul\":1988:1997   */\n      dup2\n        /* \"#utility.yul\":1982:1986   */\n      dup2\n        /* \"#utility.yul\":1978:1998   */\n      sub\n        /* \"#utility.yul\":1974:1975   */\n      0x00\n        /* \"#utility.yul\":1963:1972   */\n      dup4\n        /* \"#utility.yul\":1959:1976   */\n      add\n        /* \"#utility.yul\":1952:1999   */\n      mstore\n        /* \"#utility.yul\":2016:2094   */\n      tag_73\n        /* \"#utility.yul\":2089:2093   */\n      dup2\n        /* \"#utility.yul\":2080:2086   */\n      dup5\n        /* \"#utility.yul\":2016:2094   */\n      tag_42\n      jump\t// in\n    tag_73:\n        /* \"#utility.yul\":2008:2094   */\n      swap1\n      pop\n        /* \"#utility.yul\":1788:2101   */\n      swap3\n      swap2\n      pop\n      pop\n      jump\t// out\n        /* \"#utility.yul\":2188:2305   */\n    tag_44:\n        /* \"#utility.yul\":2297:2298   */\n      0x00\n        /* \"#utility.yul\":2294:2295   */\n      0x00\n        /* \"#utility.yul\":2287:2299   */\n      revert\n        /* \"#utility.yul\":2434:2539   */\n    tag_46:\n        /* \"#utility.yul\":2470:2477   */\n      0x00\n        /* \"#utility.yul\":2510:2532   */\n      0xffffffffffffffffffff\n        /* \"#utility.yul\":2503:2508   */\n      dup3\n        /* \"#utility.yul\":2499:2533   */\n      and\n        /* \"#utility.yul\":2488:2533   */\n      swap1\n      pop\n        /* \"#utility.yul\":2434:2539   */\n      swap2\n      swap1\n      pop\n      jump\t// out\n        /* \"#utility.yul\":2545:2665   */\n    tag_47:\n        /* \"#utility.yul\":2617:2640   */\n      tag_79\n        /* \"#utility.yul\":2634:2639   */\n      dup2\n        /* \"#utility.yul\":2617:2640   */\n      tag_46\n      jump\t// in\n    tag_79:\n        /* \"#utility.yul\":2610:2615   */\n      dup2\n        /* \"#utility.yul\":2607:2641   */\n      eq\n        /* \"#utility.yul\":2597:2659   */\n      tag_80\n      jumpi\n        /* \"#utility.yul\":2655:2656   */\n      0x00\n        /* \"#utility.yul\":2652:2653   */\n      0x00\n        /* \"#utility.yul\":2645:2657   */\n      revert\n        /* \"#utility.yul\":2597:2659   */\n    tag_80:\n        /* \"#utility.yul\":2545:2665   */\n      pop\n      jump\t// out\n        /* \"#utility.yul\":2671:2808   */\n    tag_48:\n        /* \"#utility.yul\":2716:2721   */\n      0x00\n        /* \"#utility.yul\":2754:2760   */\n      dup2\n        /* \"#utility.yul\":2741:2761   */\n      calldataload\n        /* \"#utility.yul\":2732:2761   */\n      swap1\n      pop\n        /* \"#utility.yul\":2770:2802   */\n      tag_82\n        /* \"#utility.yul\":2796:2801   */\n      dup2\n        /* \"#utility.yul\":2770:2802   */\n      tag_47\n      jump\t// in\n    tag_82:\n        /* \"#utility.yul\":2671:2808   */\n      swap3\n      swap2\n      pop\n      pop\n      jump\t// out\n        /* \"#utility.yul\":2814:3141   */\n    tag_22:\n        /* \"#utility.yul\":2872:2878   */\n      0x00\n        /* \"#utility.yul\":2921:2923   */\n      0x20\n        /* \"#utility.yul\":2909:2918   */\n      dup3\n        /* \"#utility.yul\":2900:2907   */\n      dup5\n        /* \"#utility.yul\":2896:2919   */\n      sub\n        /* \"#utility.yul\":2892:2924   */\n      slt\n        /* \"#utility.yul\":2889:3008   */\n      iszero\n      tag_84\n      jumpi\n        /* \"#utility.yul\":2927:3006   */\n      tag_85\n      tag_44\n      jump\t// in\n    tag_85:\n        /* \"#utility.yul\":2889:3008   */\n    tag_84:\n        /* \"#utility.yul\":3047:3048   */\n      0x00\n        /* \"#utility.yul\":3072:3124   */\n      tag_86\n        /* \"#utility.yul\":3116:3123   */\n      dup5\n        /* \"#utility.yul\":3107:3113   */\n      dup3\n        /* \"#utility.yul\":3096:3105   */\n      dup6\n        /* \"#utility.yul\":3092:3114   */\n      add\n        /* \"#utility.yul\":3072:3124   */\n      tag_48\n      jump\t// in\n    tag_86:\n        /* \"#utility.yul\":3062:3124   */\n      swap2\n      pop\n        /* \"#utility.yul\":3018:3134   */\n      pop\n        /* \"#utility.yul\":2814:3141   */\n      swap3\n      swap2\n      pop\n      pop\n      jump\t// out\n        /* \"#utility.yul\":3147:3262   */\n    tag_49:\n        /* \"#utility.yul\":3232:3255   */\n      tag_88\n        /* \"#utility.yul\":3249:3254   */\n      dup2\n        /* \"#utility.yul\":3232:3255   */\n      tag_46\n      jump\t// in\n    tag_88:\n        /* \"#utility.yul\":3227:3230   */\n      dup3\n        /* \"#utility.yul\":3220:3256   */\n      mstore\n        /* \"#utility.yul\":3147:3262   */\n      pop\n      pop\n      jump\t// out\n        /* \"#utility.yul\":3268:3344   */\n    tag_50:\n        /* \"#utility.yul\":3304:3311   */\n      0x00\n        /* \"#utility.yul\":3333:3338   */\n      dup2\n        /* \"#utility.yul\":3322:3338   */\n      swap1\n      pop\n        /* \"#utility.yul\":3268:3344   */\n      swap2\n      swap1\n      pop\n      jump\t// out\n        /* \"#utility.yul\":3350:3465   */\n    tag_51:\n        /* \"#utility.yul\":3435:3458   */\n      tag_91\n        /* \"#utility.yul\":3452:3457   */\n      dup2\n        /* \"#utility.yul\":3435:3458   */\n      tag_50\n      jump\t// in\n    tag_91:\n        /* \"#utility.yul\":3430:3433   */\n      dup3\n        /* \"#utility.yul\":3423:3459   */\n      mstore\n        /* \"#utility.yul\":3350:3465   */\n      pop\n      pop\n      jump\t// out\n        /* \"#utility.yul\":3471:4123   */\n    tag_25:\n        /* \"#utility.yul\":3670:3674   */\n      0x00\n        /* \"#utility.yul\":3708:3711   */\n      0xa0\n        /* \"#utility.yul\":3697:3706   */\n      dup3\n        /* \"#utility.yul\":3693:3712   */\n      add\n        /* \"#utility.yul\":3685:3712   */\n      swap1\n      pop\n        /* \"#utility.yul\":3722:3791   */\n      tag_93\n        /* \"#utility.yul\":3788:3789   */\n      0x00\n        /* \"#utility.yul\":3777:3786   */\n      dup4\n        /* \"#utility.yul\":3773:3790   */\n      add\n        /* \"#utility.yul\":3764:3770   */\n      dup9\n        /* \"#utility.yul\":3722:3791   */\n      tag_49\n      jump\t// in\n    tag_93:\n        /* \"#utility.yul\":3801:3871   */\n      tag_94\n        /* \"#utility.yul\":3867:3869   */\n      0x20\n        /* \"#utility.yul\":3856:3865   */\n      dup4\n        /* \"#utility.yul\":3852:3870   */\n      add\n        /* \"#utility.yul\":3843:3849   */\n      dup8\n        /* \"#utility.yul\":3801:3871   */\n      tag_51\n      jump\t// in\n    tag_94:\n        /* \"#utility.yul\":3881:3953   */\n      tag_95\n        /* \"#utility.yul\":3949:3951   */\n      0x40\n        /* \"#utility.yul\":3938:3947   */\n      dup4\n        /* \"#utility.yul\":3934:3952   */\n      add\n        /* \"#utility.yul\":3925:3931   */\n      dup7\n        /* \"#utility.yul\":3881:3953   */\n      tag_37\n      jump\t// in\n    tag_95:\n        /* \"#utility.yul\":3963:4035   */\n      tag_96\n        /* \"#utility.yul\":4031:4033   */\n      0x60\n        /* \"#utility.yul\":4020:4029   */\n      dup4\n        /* \"#utility.yul\":4016:4034   */\n      add\n        /* \"#utility.yul\":4007:4013   */\n      dup6\n        /* \"#utility.yul\":3963:4035   */\n      tag_37\n      jump\t// in\n    tag_96:\n        /* \"#utility.yul\":4045:4116   */\n      tag_97\n        /* \"#utility.yul\":4111:4114   */\n      0x80\n        /* \"#utility.yul\":4100:4109   */\n      dup4\n        /* \"#utility.yul\":4096:4115   */\n      add\n        /* \"#utility.yul\":4087:4093   */\n      dup5\n        /* \"#utility.yul\":4045:4116   */\n      tag_49\n      jump\t// in\n    tag_97:\n        /* \"#utility.yul\":3471:4123   */\n      swap7\n      swap6\n      pop\n      pop\n      pop\n      pop\n      pop\n      pop\n      jump\t// out\n\n    auxdata: 0xa2646970667358221220b718e2e84eece53c779165796eeddc01fd1d6ff137200de0c5eb2e10b7237fa764736f6c634300081e0033\n}\n",
				"bytecode": {
					"linkReferences": {},
					"object": "6080604052348015600e575f5ffd5b506103418061001c5f395ff3fe608060405234801561000f575f5ffd5b5060043610610055575f3560e01c8063313ce5671461005957806354fd4d50146100775780637284e416146100955780639a6fc8f5146100b3578063feaf968c146100e7575b5f5ffd5b610061610109565b60405161006e919061014b565b60405180910390f35b61007f61010d565b60405161008c919061017c565b60405180910390f35b61009d610111565b6040516100aa9190610205565b60405180910390f35b6100cd60048036038101906100c89190610268565b610116565b6040516100de9594939291906102ba565b60405180910390f35b6100ef610124565b6040516101009594939291906102ba565b60405180910390f35b5f90565b5f90565b606090565b5f5f5f5f5f91939590929450565b5f5f5f5f5f9091929394565b5f60ff82169050919050565b61014581610130565b82525050565b5f60208201905061015e5f83018461013c565b92915050565b5f819050919050565b61017681610164565b82525050565b5f60208201905061018f5f83018461016d565b92915050565b5f81519050919050565b5f82825260208201905092915050565b8281835e5f83830152505050565b5f601f19601f8301169050919050565b5f6101d782610195565b6101e1818561019f565b93506101f18185602086016101af565b6101fa816101bd565b840191505092915050565b5f6020820190508181035f83015261021d81846101cd565b905092915050565b5f5ffd5b5f69ffffffffffffffffffff82169050919050565b61024781610229565b8114610251575f5ffd5b50565b5f813590506102628161023e565b92915050565b5f6020828403121561027d5761027c610225565b5b5f61028a84828501610254565b91505092915050565b61029c81610229565b82525050565b5f819050919050565b6102b4816102a2565b82525050565b5f60a0820190506102cd5f830188610293565b6102da60208301876102ab565b6102e7604083018661016d565b6102f4606083018561016d565b6103016080830184610293565b969550505050505056fea2646970667358221220b718e2e84eece53c779165796eeddc01fd1d6ff137200de0c5eb2e10b7237fa764736f6c634300081e0033",
					"opcodes": "PUSH1 0x80 PUSH1 0x40 MSTORE CALLVALUE DUP1 ISZERO PUSH1 0xE JUMPI PUSH0 PUSH0 REVERT JUMPDEST POP PUSH2 0x341 DUP1 PUSH2 0x1C PUSH0 CODECOPY PUSH0 RETURN INVALID PUSH1 0x80 PUSH1 0x40 MSTORE CALLVALUE DUP1 ISZERO PUSH2 0xF JUMPI PUSH0 PUSH0 REVERT JUMPDEST POP PUSH1 0x4 CALLDATASIZE LT PUSH2 0x55 JUMPI PUSH0 CALLDATALOAD PUSH1 0xE0 SHR DUP1 PUSH4 0x313CE567 EQ PUSH2 0x59 JUMPI DUP1 PUSH4 0x54FD4D50 EQ PUSH2 0x77 JUMPI DUP1 PUSH4 0x7284E416 EQ PUSH2 0x95 JUMPI DUP1 PUSH4 0x9A6FC8F5 EQ PUSH2 0xB3 JUMPI DUP1 PUSH4 0xFEAF968C EQ PUSH2 0xE7 JUMPI JUMPDEST PUSH0 PUSH0 REVERT JUMPDEST PUSH2 0x61 PUSH2 0x109 JUMP JUMPDEST PUSH1 0x40 MLOAD PUSH2 0x6E SWAP2 SWAP1 PUSH2 0x14B JUMP JUMPDEST PUSH1 0x40 MLOAD DUP1 SWAP2 SUB SWAP1 RETURN JUMPDEST PUSH2 0x7F PUSH2 0x10D JUMP JUMPDEST PUSH1 0x40 MLOAD PUSH2 0x8C SWAP2 SWAP1 PUSH2 0x17C JUMP JUMPDEST PUSH1 0x40 MLOAD DUP1 SWAP2 SUB SWAP1 RETURN JUMPDEST PUSH2 0x9D PUSH2 0x111 JUMP JUMPDEST PUSH1 0x40 MLOAD PUSH2 0xAA SWAP2 SWAP1 PUSH2 0x205 JUMP JUMPDEST PUSH1 0x40 MLOAD DUP1 SWAP2 SUB SWAP1 RETURN JUMPDEST PUSH2 0xCD PUSH1 0x4 DUP1 CALLDATASIZE SUB DUP2 ADD SWAP1 PUSH2 0xC8 SWAP2 SWAP1 PUSH2 0x268 JUMP JUMPDEST PUSH2 0x116 JUMP JUMPDEST PUSH1 0x40 MLOAD PUSH2 0xDE SWAP6 SWAP5 SWAP4 SWAP3 SWAP2 SWAP1 PUSH2 0x2BA JUMP JUMPDEST PUSH1 0x40 MLOAD DUP1 SWAP2 SUB SWAP1 RETURN JUMPDEST PUSH2 0xEF PUSH2 0x124 JUMP JUMPDEST PUSH1 0x40 MLOAD PUSH2 0x100 SWAP6 SWAP5 SWAP4 SWAP3 SWAP2 SWAP1 PUSH2 0x2BA JUMP JUMPDEST PUSH1 0x40 MLOAD DUP1 SWAP2 SUB SWAP1 RETURN JUMPDEST PUSH0 SWAP1 JUMP JUMPDEST PUSH0 SWAP1 JUMP JUMPDEST PUSH1 0x60 SWAP1 JUMP JUMPDEST PUSH0 PUSH0 PUSH0 PUSH0 PUSH0 SWAP2 SWAP4 SWAP6 SWAP1 SWAP3 SWAP5 POP JUMP JUMPDEST PUSH0 PUSH0 PUSH0 PUSH0 PUSH0 SWAP1 SWAP2 SWAP3 SWAP4 SWAP5 JUMP JUMPDEST PUSH0 PUSH1 0xFF DUP3 AND SWAP1 POP SWAP2 SWAP1 POP JUMP JUMPDEST PUSH2 0x145 DUP2 PUSH2 0x130 JUMP JUMPDEST DUP3 MSTORE POP POP JUMP JUMPDEST PUSH0 PUSH1 0x20 DUP3 ADD SWAP1 POP PUSH2 0x15E PUSH0 DUP4 ADD DUP5 PUSH2 0x13C JUMP JUMPDEST SWAP3 SWAP2 POP POP JUMP JUMPDEST PUSH0 DUP2 SWAP1 POP SWAP2 SWAP1 POP JUMP JUMPDEST PUSH2 0x176 DUP2 PUSH2 0x164 JUMP JUMPDEST DUP3 MSTORE POP POP JUMP JUMPDEST PUSH0 PUSH1 0x20 DUP3 ADD SWAP1 POP PUSH2 0x18F PUSH0 DUP4 ADD DUP5 PUSH2 0x16D JUMP JUMPDEST SWAP3 SWAP2 POP POP JUMP JUMPDEST PUSH0 DUP2 MLOAD SWAP1 POP SWAP2 SWAP1 POP JUMP JUMPDEST PUSH0 DUP3 DUP3 MSTORE PUSH1 0x20 DUP3 ADD SWAP1 POP SWAP3 SWAP2 POP POP JUMP JUMPDEST DUP3 DUP2 DUP4 MCOPY PUSH0 DUP4 DUP4 ADD MSTORE POP POP POP JUMP JUMPDEST PUSH0 PUSH1 0x1F NOT PUSH1 0x1F DUP4 ADD AND SWAP1 POP SWAP2 SWAP1 POP JUMP JUMPDEST PUSH0 PUSH2 0x1D7 DUP3 PUSH2 0x195 JUMP JUMPDEST PUSH2 0x1E1 DUP2 DUP6 PUSH2 0x19F JUMP JUMPDEST SWAP4 POP PUSH2 0x1F1 DUP2 DUP6 PUSH1 0x20 DUP7 ADD PUSH2 0x1AF JUMP JUMPDEST PUSH2 0x1FA DUP2 PUSH2 0x1BD JUMP JUMPDEST DUP5 ADD SWAP2 POP POP SWAP3 SWAP2 POP POP JUMP JUMPDEST PUSH0 PUSH1 0x20 DUP3 ADD SWAP1 POP DUP2 DUP2 SUB PUSH0 DUP4 ADD MSTORE PUSH2 0x21D DUP2 DUP5 PUSH2 0x1CD JUMP JUMPDEST SWAP1 POP SWAP3 SWAP2 POP POP JUMP JUMPDEST PUSH0 PUSH0 REVERT JUMPDEST PUSH0 PUSH10 0xFFFFFFFFFFFFFFFFFFFF DUP3 AND SWAP1 POP SWAP2 SWAP1 POP JUMP JUMPDEST PUSH2 0x247 DUP2 PUSH2 0x229 JUMP JUMPDEST DUP2 EQ PUSH2 0x251 JUMPI PUSH0 PUSH0 REVERT JUMPDEST POP JUMP JUMPDEST PUSH0 DUP2 CALLDATALOAD SWAP1 POP PUSH2 0x262 DUP2 PUSH2 0x23E JUMP JUMPDEST SWAP3 SWAP2 POP POP JUMP JUMPDEST PUSH0 PUSH1 0x20 DUP3 DUP5 SUB SLT ISZERO PUSH2 0x27D JUMPI PUSH2 0x27C PUSH2 0x225 JUMP JUMPDEST JUMPDEST PUSH0 PUSH2 0x28A DUP5 DUP3 DUP6 ADD PUSH2 0x254 JUMP JUMPDEST SWAP2 POP POP SWAP3 SWAP2 POP POP JUMP JUMPDEST PUSH2 0x29C DUP2 PUSH2 0x229 JUMP JUMPDEST DUP3 MSTORE POP POP JUMP JUMPDEST PUSH0 DUP2 SWAP1 POP SWAP2 SWAP1 POP JUMP JUMPDEST PUSH2 0x2B4 DUP2 PUSH2 0x2A2 JUMP JUMPDEST DUP3 MSTORE POP POP JUMP JUMPDEST PUSH0 PUSH1 0xA0 DUP3 ADD SWAP1 POP PUSH2 0x2CD PUSH0 DUP4 ADD DUP9 PUSH2 0x293 JUMP JUMPDEST PUSH2 0x2DA PUSH1 0x20 DUP4 ADD DUP8 PUSH2 0x2AB JUMP JUMPDEST PUSH2 0x2E7 PUSH1 0x40 DUP4 ADD DUP7 PUSH2 0x16D JUMP JUMPDEST PUSH2 0x2F4 PUSH1 0x60 DUP4 ADD DUP6 PUSH2 0x16D JUMP JUMPDEST PUSH2 0x301 PUSH1 0x80 DUP4 ADD DUP5 PUSH2 0x293 JUMP JUMPDEST SWAP7 SWAP6 POP POP POP POP POP POP JUMP INVALID LOG2 PUSH5 0x6970667358 0x22 SLT KECCAK256 0xB7 XOR 0xE2 0xE8 0x4E EOFCREATE 0xE5 EXTCODECOPY PUSH24 0x9165796EEDDC01FD1D6FF137200DE0C5EB2E10B7237FA764 PUSH20 0x6F6C634300081E00330000000000000000000000 "
				},
				"gasEstimates": {
					"creation": {
						"codeDepositCost": "166600",
						"executionCost": "212",
						"totalCost": "166812"
					},
					"external": {
						"decimals()": "308",
						"description()": "infinite",
						"getRoundData(uint80)": "infinite",
						"latestRoundData()": "infinite",
						"version()": "324"
					}
				},
				"methodIdentifiers": {
					"decimals()": "313ce567",
					"description()": "7284e416",
					"getRoundData(uint80)": "9a6fc8f5",
					"latestRoundData()": "feaf968c",
					"version()": "54fd4d50"
				}
			},
			"storageLayout": {
				"storage": [],
				"types": null
			},
			"userdoc": {
				"kind": "user",
				"methods": {},
				"version": 1
			}
		}
	}
}