{
	"data": {
		"bytecode": {
			"linkReferences": {},
			"object": "60c060405234801561000f575f5ffd5b50604051610a52380380610a52833981810160405281019061003191906100bd565b3373ffffffffffffffffffffffffffffffffffffffff1660808173ffffffffffffffffffffffffffffffffffffffff1681525050670de0b6b3a7640000816100799190610115565b60a0818152505050610156565b5f5ffd5b5f819050919050565b61009c8161008a565b81146100a6575f5ffd5b50565b5f815190506100b781610093565b92915050565b5f602082840312156100d2576100d1610086565b5b5f6100df848285016100a9565b91505092915050565b7f4e487b71000000000000000000000000000000000000000000000000000000005f52601160045260245ffd5b5f61011f8261008a565b915061012a8361008a565b92508282026101388161008a565b9150828204841483151761014f5761014e6100e8565b5b5092915050565b60805160a0516108dc6101765f395f60e901525f6101bc01526108dc5ff3fe608060405260043610610042575f3560e01c80632834a60d1461005b5780633ccfd60b14610097578063b60d4288146100a1578063cd6345b4146100ab57610051565b366100515761004f6100e7565b005b6100596100e7565b005b348015610066575f5ffd5b50610081600480360381019061007c919061043c565b6101a6565b60405161008e919061047f565b60405180910390f35b61009f6101ba565b005b6100a96100e7565b005b3480156100b6575f5ffd5b506100d160048036038101906100cc91906104c2565b6102f3565b6040516100de919061047f565b60405180910390f35b7f000000000000000000000000000000000000000000000000000000000000000061011134610304565b1015610152576040517f08c379a000000000000000000000000000000000000000000000000000000000815260040161014990610547565b60405180910390fd5b345f5f3373ffffffffffffffffffffffffffffffffffffffff1673ffffffffffffffffffffffffffffffffffffffff1681526020019081526020015f205f82825461019d9190610592565b92505081905550565b5f602052805f5260405f205f915090505481565b7f000000000000000000000000000000000000000000000000000000000000000073ffffffffffffffffffffffffffffffffffffffff163373ffffffffffffffffffffffffffffffffffffffff1614610248576040517f08c379a000000000000000000000000000000000000000000000000000000000815260040161023f9061060f565b60405180910390fd5b5f3373ffffffffffffffffffffffffffffffffffffffff164760405161026d9061065a565b5f6040518083038185875af1925050503d805f81146102a7576040519150601f19603f3d011682016040523d82523d5f602084013e6102ac565b606091505b50509050806102f0576040517f08c379a00000000000000000000000000000000000000000000000000000000081526004016102e7906106b8565b60405180910390fd5b50565b5f6102fd82610304565b9050919050565b5f670de0b6b3a764000082610317610332565b6103219190610703565b61032b9190610703565b9050919050565b5f5f73514910771af9ca656af840dff83e8264ecf986ca90508073ffffffffffffffffffffffffffffffffffffffff1663feaf968c6040518163ffffffff1660e01b815260040160a060405180830381865afa158015610394573d5f5f3e3d5ffd5b505050506040513d601f19601f820116820180604052508101906103b891906107b9565b9091929350909150905050809250506402540be400826103d89190610830565b91505090565b5f5ffd5b5f73ffffffffffffffffffffffffffffffffffffffff82169050919050565b5f61040b826103e2565b9050919050565b61041b81610401565b8114610425575f5ffd5b50565b5f8135905061043681610412565b92915050565b5f60208284031215610451576104506103de565b5b5f61045e84828501610428565b91505092915050565b5f819050919050565b61047981610467565b82525050565b5f6020820190506104925f830184610470565b92915050565b6104a181610467565b81146104ab575f5ffd5b50565b5f813590506104bc81610498565b92915050565b5f602082840312156104d7576104d66103de565b5b5f6104e4848285016104ae565b91505092915050565b5f82825260208201905092915050565b7f73656e64206d6f726520455448000000000000000000000000000000000000005f82015250565b5f610531600d836104ed565b915061053c826104fd565b602082019050919050565b5f6020820190508181035f83015261055e81610525565b9050919050565b7f4e487b71000000000000000000000000000000000000000000000000000000005f52601160045260245ffd5b5f61059c82610467565b91506105a783610467565b92508282019050808211156105bf576105be610565565b5b92915050565b7f6f6e6c79206f776e6572000000000000000000000000000000000000000000005f82015250565b5f6105f9600a836104ed565b9150610604826105c5565b602082019050919050565b5f6020820190508181035f830152610626816105ed565b9050919050565b5f81905092915050565b50565b5f6106455f8361062d565b915061065082610637565b5f82019050919050565b5f6106648261063a565b9150819050919050565b7f7769746864726177206661696c640000000000000000000000000000000000005f82015250565b5f6106a2600e836104ed565b91506106ad8261066e565b602082019050919050565b5f6020820190508181035f8301526106cf81610696565b9050919050565b7f4e487b71000000000000000000000000000000000000000000000000000000005f52601260045260245ffd5b5f61070d82610467565b915061071883610467565b925082610728576107276106d6565b5b828204905092915050565b5f69ffffffffffffffffffff82169050919050565b61075181610733565b811461075b575f5ffd5b50565b5f8151905061076c81610748565b92915050565b5f819050919050565b61078481610772565b811461078e575f5ffd5b50565b5f8151905061079f8161077b565b92915050565b5f815190506107b381610498565b92915050565b5f5f5f5f5f60a086880312156107d2576107d16103de565b5b5f6107df8882890161075e565b95505060206107f088828901610791565b9450506040610801888289016107a5565b9350506060610812888289016107a5565b92505060806108238882890161075e565b9150509295509295909350565b5f61083a82610772565b915061084583610772565b925082820261085381610772565b91507f800000000000000000000000000000000000000000000000000000000000000084145f8412161561088a57610889610565565b5b828205841483151761089f5761089e610565565b5b509291505056fea2646970667358221220f91248effc5c93066be71ecda582e4ce706d561523471ec282f225c1c04be9d664736f6c634300081e0033",
			"opcodes": "PUSH1 0xC0 PUSH1 0x40 MSTORE CALLVALUE DUP1 ISZERO PUSH2 0xF JUMPI PUSH0 PUSH0 REVERT JUMPDEST POP PUSH1 0x40 MLOAD PUSH2 0xA52 CODESIZE SUB DUP1 PUSH2 0xA52 DUP4 CODECOPY DUP2 DUP2 ADD PUSH1 0x40 MSTORE DUP2 ADD SWAP1 PUSH2 0x31 SWAP2 SWAP1 PUSH2 0xBD JUMP JUMPDEST CALLER PUSH20 0xFFFFFFFFFFFFFFFFFFFFFFFFFFFFFFFFFFFFFFFF AND PUSH1 0x80 DUP2 PUSH20 0xFFFFFFFFFFFFFFFFFFFFFFFFFFFFFFFFFFFFFFFF AND DUP2 MSTORE POP POP PUSH8 0xDE0B6B3A7640000 DUP2 PUSH2 0x79 SWAP2 SWAP1 PUSH2 0x115 JUMP JUMPDEST PUSH1 0xA0 DUP2 DUP2 MSTORE POP POP POP PUSH2 0x156 JUMP JUMPDEST PUSH0 PUSH0 REVERT JUMPDEST PUSH0 DUP2 SWAP1 POP SWAP2 SWAP1 POP JUMP JUMPDEST PUSH2 0x9C DUP2 PUSH2 0x8A JUMP JUMPDEST DUP2 EQ PUSH2 0xA6 JUMPI PUSH0 PUSH0 REVERT JUMPDEST POP JUMP JUMPDEST PUSH0 DUP2 MLOAD SWAP1 POP PUSH2 0xB7 DUP2 PUSH2 0x93 JUMP JUMPDEST SWAP3 SWAP2 POP POP JUMP JUMPDEST PUSH0 PUSH1 0x20 DUP3 DUP5 SUB SLT ISZERO PUSH2 0xD2 JUMPI PUSH2 0xD1 PUSH2 0x86 JUMP JUMPDEST JUMPDEST PUSH0 PUSH2 0xDF DUP5 DUP3 DUP6 ADD PUSH2 0xA9 JUMP JUMPDEST SWAP2 POP POP SWAP3 SWAP2 POP POP JUMP JUMPDEST PUSH32 0x4E487B7100000000000000000000000000000000000000000000000000000000 PUSH0 MSTORE PUSH1 0x11 PUSH1 0x4 MSTORE PUSH1 0x24 PUSH0 REVERT JUMPDEST PUSH0 PUSH2 0x11F DUP3 PUSH2 0x8A JUMP JUMPDEST SWAP2 POP PUSH2 0x12A DUP4 PUSH2 0x8A JUMP JUMPDEST SWAP3 POP DUP3 DUP3 MUL PUSH2 0x138 DUP2 PUSH2 0x8A JUMP JUMPDEST SWAP2 POP DUP3 DUP3 DIV DUP5 EQ DUP4 ISZERO OR PUSH2 0x14F JUMPI PUSH2 0x14E PUSH2 0xE8 JUMP JUMPDEST JUMPDEST POP SWAP3 SWAP2 POP POP JUMP JUMPDEST PUSH1 0x80 MLOAD PUSH1 0xA0 MLOAD PUSH2 0x8DC PUSH2 0x176 PUSH0 CODECOPY PUSH0 PUSH1 0xE9 ADD MSTORE PUSH0 PUSH2 0x1BC ADD MSTORE PUSH2 0x8DC PUSH0 RETURN INVALID PUSH1 0x80 PUSH1 0x40 MSTORE PUSH1 0x4 CALLDATASIZE LT PUSH2 0x42 JUMPI PUSH0 CALLDATALOAD PUSH1 0xE0 SHR DUP1 PUSH4 0x2834A60D EQ PUSH2 0x5B JUMPI DUP1 PUSH4 0x3CCFD60B EQ PUSH2 0x97 JUMPI DUP1 PUSH4 0xB60D4288 EQ PUSH2 0xA1 JUMPI DUP1 PUSH4 0xCD6345B4 EQ PUSH2 0xAB JUMPI PUSH2 0x51 JUMP JUMPDEST CALLDATASIZE PUSH2 0x51 JUMPI PUSH2 0x4F PUSH2 0xE7 JUMP JUMPDEST STOP JUMPDEST PUSH2 0x59 PUSH2 0xE7 JUMP JUMPDEST STOP JUMPDEST CALLVALUE DUP1 ISZERO PUSH2 0x66 JUMPI PUSH0 PUSH0 REVERT JUMPDEST POP PUSH2 0x81 PUSH1 0x4 DUP1 CALLDATASIZE SUB DUP2 ADD SWAP1 PUSH2 0x7C SWAP2 SWAP1 PUSH2 0x43C JUMP JUMPDEST PUSH2 0x1A6 JUMP JUMPDEST PUSH1 0x40 MLOAD PUSH2 0x8E SWAP2 SWAP1 PUSH2 0x47F JUMP JUMPDEST PUSH1 0x40 MLOAD DUP1 SWAP2 SUB SWAP1 RETURN JUMPDEST PUSH2 0x9F PUSH2 0x1BA JUMP JUMPDEST STOP JUMPDEST PUSH2 0xA9 PUSH2 0xE7 JUMP JUMPDEST STOP JUMPDEST CALLVALUE DUP1 ISZERO PUSH2 0xB6 JUMPI PUSH0 PUSH0 REVERT JUMPDEST POP PUSH2 0xD1 PUSH1 0x4 DUP1 CALLDATASIZE SUB DUP2 ADD SWAP1 PUSH2 0xCC SWAP2 SWAP1 PUSH2 0x4C2 JUMP JUMPDEST PUSH2 0x2F3 JUMP JUMPDEST PUSH1 0x40 MLOAD PUSH2 0xDE SWAP2 SWAP1 PUSH2 0x47F JUMP JUMPDEST PUSH1 0x40 MLOAD DUP1 SWAP2 SUB SWAP1 RETURN JUMPDEST PUSH32 0x0 PUSH2 0x111 CALLVALUE PUSH2 0x304 JUMP JUMPDEST LT ISZERO PUSH2 0x152 JUMPI PUSH1 0x40 MLOAD PUSH32 0x8C379A000000000000000000000000000000000000000000000000000000000 DUP2 MSTORE PUSH1 0x4 ADD PUSH2 0x149 SWAP1 PUSH2 0x547 JUMP JUMPDEST PUSH1 0x40 MLOAD DUP1 SWAP2 SUB SWAP1 REVERT JUMPDEST CALLVALUE PUSH0 PUSH0 CALLER PUSH20 0xFFFFFFFFFFFFFFFFFFFFFFFFFFFFFFFFFFFFFFFF AND PUSH20 0xFFFFFFFFFFFFFFFFFFFFFFFFFFFFFFFFFFFFFFFF AND DUP2 MSTORE PUSH1 0x20 ADD SWAP1 DUP2 MSTORE PUSH1 0x20 ADD PUSH0 KECCAK256 PUSH0 DUP3 DUP3 SLOAD PUSH2 0x19D SWAP2 SWAP1 PUSH2 0x592 JUMP JUMPDEST SWAP3 POP POP DUP2 SWAP1 SSTORE POP JUMP JUMPDEST PUSH0 PUSH1 0x20 MSTORE DUP1 PUSH0 MSTORE PUSH1 0x40 PUSH0 KECCAK256 PUSH0 SWAP2 POP SWAP1 POP SLOAD DUP2 JUMP JUMPDEST PUSH32 0x0 PUSH20 0xFFFFFFFFFFFFFFFFFFFFFFFFFFFFFFFFFFFFFFFF AND CALLER PUSH20 0xFFFFFFFFFFFFFFFFFFFFFFFFFFFFFFFFFFFFFFFF AND EQ PUSH2 0x248 JUMPI PUSH1 0x40 MLOAD PUSH32 0x8C379A000000000000000000000000000000000000000000000000000000000 DUP2 MSTORE PUSH1 0x4 ADD PUSH2 0x23F SWAP1 PUSH2 0x60F JUMP JUMPDEST PUSH1 0x40 MLOAD DUP1 SWAP2 SUB SWAP1 REVERT JUMPDEST PUSH0 CALLER PUSH20 0xFFFFFFFFFFFFFFFFFFFFFFFFFFFFFFFFFFFFFFFF AND SELFBALANCE PUSH1 0x40 MLOAD PUSH2 0x26D SWAP1 PUSH2 0x65A JUMP JUMPDEST PUSH0 PUSH1 0x40 MLOAD DUP1 DUP4 SUB DUP2 DUP6 DUP8 GAS CALL SWAP3 POP POP POP RETURNDATASIZE DUP1 PUSH0 DUP2 EQ PUSH2 0x2A7 JUMPI PUSH1 0x40 MLOAD SWAP2 POP PUSH1 0x1F NOT PUSH1 0x3F RETURNDATASIZE ADD AND DUP3 ADD PUSH1 0x40 MSTORE RETURNDATASIZE DUP3 MSTORE RETURNDATASIZE PUSH0 PUSH1 0x20 DUP5 ADD RETURNDATACOPY PUSH2 0x2AC JUMP JUMPDEST PUSH1 0x60 SWAP2 POP JUMPDEST POP POP SWAP1 POP DUP1 PUSH2 0x2F0 JUMPI PUSH1 0x40 MLOAD PUSH32 0x8C379A000000000000000000000000000000000000000000000000000000000 DUP2 MSTORE PUSH1 0x4 ADD PUSH2 0x2E7 SWAP1 PUSH2 0x6B8 JUMP JUMPDEST PUSH1 0x40 MLOAD DUP1 SWAP2 SUB SWAP1 REVERT JUMPDEST POP JUMP JUMPDEST PUSH0 PUSH2 0x2FD DUP3 PUSH2 0x304 JUMP JUMPDEST SWAP1 POP SWAP2 SWAP1 POP JUMP JUMPDEST PUSH0 PUSH8 0xDE0B6B3A7640000 DUP3 PUSH2 0x317 PUSH2 0x332 JUMP JUMPDEST PUSH2 0x321 SWAP2 SWAP1 PUSH2 0x703 JUMP JUMPDEST PUSH2 0x32B SWAP2 SWAP1 PUSH2 0x703 JUMP JUMPDEST SWAP1 POP SWAP2 SWAP1 POP JUMP JUMPDEST PUSH0 PUSH0 PUSH20 0x514910771AF9CA656AF840DFF83E8264ECF986CA SWAP1 POP DUP1 PUSH20 0xFFFFFFFFFFFFFFFFFFFFFFFFFFFFFFFFFFFFFFFF AND PUSH4 0xFEAF968C PUSH1 0x40 MLOAD DUP2 PUSH4 0xFFFFFFFF AND PUSH1 0xE0 SHL DUP2 MSTORE PUSH1 0x4 ADD PUSH1 0xA0 PUSH1 0x40 MLOAD DUP1 DUP4 SUB DUP2 DUP7 GAS STATICCALL ISZERO DUP1 ISZERO PUSH2 0x394 JUMPI RETURNDATASIZE PUSH0 PUSH0 RETURNDATACOPY RETURNDATASIZE PUSH0 REVERT JUMPDEST POP POP POP POP PUSH1 0x40 MLOAD RETURNDATASIZE PUSH1 0x1F NOT PUSH1 0x1F DUP3 ADD AND DUP3 ADD DUP1 PUSH1 0x40 MSTORE POP DUP2 ADD SWAP1 PUSH2 0x3B8 SWAP2 SWAP1 PUSH2 0x7B9 JUMP JUMPDEST SWAP1 SWAP2 SWAP3 SWAP4 POP SWAP1 SWAP2 POP SWAP1 POP POP DUP1 SWAP3 POP POP PUSH5 0x2540BE400 DUP3 PUSH2 0x3D8 SWAP2 SWAP1 PUSH2 0x830 JUMP JUMPDEST SWAP2 POP POP SWAP1 JUMP JUMPDEST PUSH0 PUSH0 REVERT JUMPDEST PUSH0 PUSH20 0xFFFFFFFFFFFFFFFFFFFFFFFFFFFFFFFFFFFFFFFF DUP3 AND SWAP1 POP SWAP2 SWAP1 POP JUMP JUMPDEST PUSH0 PUSH2 0x40B DUP3 PUSH2 0x3E2 JUMP JUMPDEST SWAP1 POP SWAP2 SWAP1 POP JUMP JUMPDEST PUSH2 0x41B DUP2 PUSH2 0x401 JUMP JUMPDEST DUP2 EQ PUSH2 0x425 JUMPI PUSH0 PUSH0 REVERT JUMPDEST POP JUMP JUMPDEST PUSH0 DUP2 CALLDATALOAD SWAP1 POP PUSH2 0x436 DUP2 PUSH2 0x412 JUMP JUMPDEST SWAP3 SWAP2 POP POP JUMP JUMPDEST PUSH0 PUSH1 0x20 DUP3 DUP5 SUB SLT ISZERO PUSH2 0x451 JUMPI PUSH2 0x450 PUSH2 0x3DE JUMP JUMPDEST JUMPDEST PUSH0 PUSH2 0x45E DUP5 DUP3 DUP6 ADD PUSH2 0x428 JUMP JUMPDEST SWAP2 POP POP SWAP3 SWAP2 POP POP JUMP JUMPDEST PUSH0 DUP2 SWAP1 POP SWAP2 SWAP1 POP JUMP JUMPDEST PUSH2 0x479 DUP2 PUSH2 0x467 JUMP JUMPDEST DUP3 MSTORE POP POP JUMP JUMPDEST PUSH0 PUSH1 0x20 DUP3 ADD SWAP1 POP PUSH2 0x492 PUSH0 DUP4 ADD DUP5 PUSH2 0x470 JUMP JUMPDEST SWAP3 SWAP2 POP POP JUMP JUMPDEST PUSH2 0x4A1 DUP2 PUSH2 0x467 JUMP JUMPDEST DUP2 EQ PUSH2 0x4AB JUMPI PUSH0 PUSH0 REVERT JUMPDEST POP JUMP JUMPDEST PUSH0 DUP2 CALLDATALOAD SWAP1 POP PUSH2 0x4BC DUP2 PUSH2 0x498 JUMP JUMPDEST SWAP3 SWAP2 POP POP JUMP JUMPDEST PUSH0 PUSH1 0x20 DUP3 DUP5 SUB SLT ISZERO PUSH2 0x4D7 JUMPI PUSH2 0x4D6 PUSH2 0x3DE JUMP JUMPDEST JUMPDEST PUSH0 PUSH2 0x4E4 DUP5 DUP3 DUP6 ADD PUSH2 0x4AE JUMP JUMPDEST SWAP2 POP POP SWAP3 SWAP2 POP POP JUMP JUMPDEST PUSH0 DUP3 DUP3 MSTORE PUSH1 0x20 DUP3 ADD SWAP1 POP SWAP3 SWAP2 POP POP JUMP JUMPDEST PUSH32 0x73656E64206D6F72652045544800000000000000000000000000000000000000 PUSH0 DUP3 ADD MSTORE POP JUMP JUMPDEST PUSH0 PUSH2 0x531 PUSH1 0xD DUP4 PUSH2 0x4ED JUMP JUMPDEST SWAP2 POP PUSH2 0x53C DUP3 PUSH2 0x4FD JUMP JUMPDEST PUSH1 0x20 DUP3 ADD SWAP1 POP SWAP2 SWAP1 POP JUMP JUMPDEST PUSH0 PUSH1 0x20 DUP3 ADD SWAP1 POP DUP2 DUP2 SUB PUSH0 DUP4 ADD MSTORE PUSH2 0x55E DUP2 PUSH2 0x525 JUMP JUMPDEST SWAP1 POP SWAP2 SWAP1 POP JUMP JUMPDEST PUSH32 0x4E487B7100000000000000000000000000000000000000000000000000000000 PUSH0 MSTORE PUSH1 0x11 PUSH1 0x4 MSTORE PUSH1 0x24 PUSH0 REVERT JUMPDEST PUSH0 PUSH2 0x59C DUP3 PUSH2 0x467 JUMP JUMPDEST SWAP2 POP PUSH2 0x5A7 DUP4 PUSH2 0x467 JUMP JUMPDEST SWAP3 POP DUP3 DUP3 ADD SWAP1 POP DUP1 DUP3 GT ISZERO PUSH2 0x5BF JUMPI PUSH2 0x5BE PUSH2 0x565 JUMP JUMPDEST JUMPDEST SWAP3 SWAP2 POP POP JUMP JUMPDEST PUSH32 0x6F6E6C79206F776E657200000000000000000000000000000000000000000000 PUSH0 DUP3 ADD MSTORE POP JUMP JUMPDEST PUSH0 PUSH2 0x5F9 PUSH1 0xA DUP4 PUSH2 0x4ED JUMP JUMPDEST SWAP2 POP PUSH2 0x604 DUP3 PUSH2 0x5C5 JUMP JUMPDEST PUSH1 0x20 DUP3 ADD SWAP1 POP SWAP2 SWAP1 POP JUMP JUMPDEST PUSH0 PUSH1 0x20 DUP3 ADD SWAP1 POP DUP2 DUP2 SUB PUSH0 DUP4 ADD MSTORE PUSH2 0x626 DUP2 PUSH2 0x5ED JUMP JUMPDEST SWAP1 POP SWAP2 SWAP1 POP JUMP JUMPDEST PUSH0 DUP2 SWAP1 POP SWAP3 SWAP2 POP POP JUMP JUMPDEST POP JUMP JUMPDEST PUSH0 PUSH2 0x645 PUSH0 DUP4 PUSH2 0x62D JUMP JUMPDEST SWAP2 POP PUSH2 0x650 DUP3 PUSH2 0x637 JUMP JUMPDEST PUSH0 DUP3 ADD SWAP1 POP SWAP2 SWAP1 POP JUMP JUMPDEST PUSH0 PUSH2 0x664 DUP3 PUSH2 0x63A JUMP JUMPDEST SWAP2 POP DUP2 SWAP1 POP SWAP2 SWAP1 POP JUMP JUMPDEST PUSH32 0x7769746864726177206661696C64000000000000000000000000000000000000 PUSH0 DUP3 ADD MSTORE POP JUMP JUMPDEST PUSH0 PUSH2 0x6A2 PUSH1 0xE DUP4 PUSH2 0x4ED JUMP JUMPDEST SWAP2 POP PUSH2 0x6AD DUP3 PUSH2 0x66E JUMP JUMPDEST PUSH1 0x20 DUP3 ADD SWAP1 POP SWAP2 SWAP1 POP JUMP JUMPDEST PUSH0 PUSH1 0x20 DUP3 ADD SWAP1 POP DUP2 DUP2 SUB PUSH0 DUP4 ADD MSTORE PUSH2 0x6CF DUP2 PUSH2 0x696 JUMP JUMPDEST SWAP1 POP SWAP2 SWAP1 POP JUMP JUMPDEST PUSH32 0x4E487B7100000000000000000000000000000000000000000000000000000000 PUSH0 MSTORE PUSH1 0x12 PUSH1 0x4 MSTORE PUSH1 0x24 PUSH0 REVERT JUMPDEST PUSH0 PUSH2 0x70D DUP3 PUSH2 0x467 JUMP JUMPDEST SWAP2 POP PUSH2 0x718 DUP4 PUSH2 0x467 JUMP JUMPDEST SWAP3 POP DUP3 PUSH2 0x728 JUMPI PUSH2 0x727 PUSH2 0x6D6 JUMP JUMPDEST JUMPDEST DUP3 DUP3 DIV SWAP1 POP SWAP3 SWAP2 POP POP JUMP JUMPDEST PUSH0 PUSH10 0xFFFFFFFFFFFFFFFFFFFF DUP3 AND SWAP1 POP SWAP2 SWAP1 POP JUMP JUMPDEST PUSH2 0x751 DUP2 PUSH2 0x733 JUMP JUMPDEST DUP2 EQ PUSH2 0x75B JUMPI PUSH0 PUSH0 REVERT JUMPDEST POP JUMP JUMPDEST PUSH0 DUP2 MLOAD SWAP1 POP PUSH2 0x76C DUP2 PUSH2 0x748 JUMP JUMPDEST SWAP3 SWAP2 POP POP JUMP JUMPDEST PUSH0 DUP2 SWAP1 POP SWAP2 SWAP1 POP JUMP JUMPDEST PUSH2 0x784 DUP2 PUSH2 0x772 JUMP JUMPDEST DUP2 EQ PUSH2 0x78E JUMPI PUSH0 PUSH0 REVERT JUMPDEST POP JUMP JUMPDEST PUSH0 DUP2 MLOAD SWAP1 POP PUSH2 0x79F DUP2 PUSH2 0x77B JUMP JUMPDEST SWAP3 SWAP2 POP POP JUMP JUMPDEST PUSH0 DUP2 MLOAD SWAP1 POP PUSH2 0x7B3 DUP2 PUSH2 0x498 JUMP JUMPDEST SWAP3 SWAP2 POP POP JUMP JUMPDEST PUSH0 PUSH0 PUSH0 PUSH0 PUSH0 PUSH1 0xA0 DUP7 DUP9 SUB SLT ISZERO PUSH2 0x7D2 JUMPI PUSH2 0x7D1 PUSH2 0x3DE JUMP JUMPDEST JUMPDEST PUSH0 PUSH2 0x7DF DUP9 DUP3 DUP10 ADD PUSH2 0x75E JUMP JUMPDEST SWAP6 POP POP PUSH1 0x20 PUSH2 0x7F0 DUP9 DUP3 DUP10 ADD PUSH2 0x791 JUMP JUMPDEST SWAP5 POP POP PUSH1 0x40 PUSH2 0x801 DUP9 DUP3 DUP10 ADD PUSH2 0x7A5 JUMP JUMPDEST SWAP4 POP POP PUSH1 0x60 PUSH2 0x812 DUP9 DUP3 DUP10 ADD PUSH2 0x7A5 JUMP JUMPDEST SWAP3 POP POP PUSH1 0x80 PUSH2 0x823 DUP9 DUP3 DUP10 ADD PUSH2 0x75E JUMP JUMPDEST SWAP2 POP POP SWAP3 SWAP6 POP SWAP3 SWAP6 SWAP1 SWAP4 POP JUMP JUMPDEST PUSH0 PUSH2 0x83A DUP3 PUSH2 0x772 JUMP JUMPDEST SWAP2 POP PUSH2 0x845 DUP4 PUSH2 0x772 JUMP JUMPDEST SWAP3 POP DUP3 DUP3 MUL PUSH2 0x853 DUP2 PUSH2 0x772 JUMP JUMPDEST SWAP2 POP PUSH32 0x8000000000000000000000000000000000000000000000000000000000000000 DUP5 EQ PUSH0 DUP5 SLT AND ISZERO PUSH2 0x88A JUMPI PUSH2 0x889 PUSH2 0x565 JUMP JUMPDEST JUMPDEST DUP3 DUP3 SDIV DUP5 EQ DUP4 ISZERO OR PUSH2 0x89F JUMPI PUSH2 0x89E PUSH2 0x565 JUMP JUMPDEST JUMPDEST POP SWAP3 SWAP2 POP POP JUMP INVALID LOG2 PUSH5 0x6970667358 0x22 SLT KECCAK256 EXTDELEGATECALL SLT BASEFEE 0xEF 0xFC TLOAD SWAP4 MOD PUSH12 0xE71ECDA582E4CE706D561523 SELFBALANCE 0x1E 0xC2 DUP3 CALLCODE 0x25 0xC1 0xC0 0x4B 0xE9 0xD6 PUSH5 0x736F6C6343 STOP ADDMOD 0x1E STOP CALLER "
		},
		"gasEstimates": {
			"creation": {
				"codeDepositCost": "453600",
				"executionCost": "infinite",
				"totalCost": "infinite"
			},
			"external": {
				"": "infinite",
				"fund()": "infinite",
				"getCurrecntPrice(uint256)": "infinite",
				"usersAmountFunded(address)": "2779",
				"withdraw()": "infinite"
			}
		},
		"methodIdentifiers": {
			"fund()": "b60d4288",
			"getCurrecntPrice(uint256)": "cd6345b4",
			"usersAmountFunded(address)": "2834a60d",
			"withdraw()": "3ccfd60b"
		}
	},
	"abi": [
		{
			"inputs": [
				{
					"internalType": "uint256",
					"name": "minAmountUSD",
					"type": "uint256"
				}
			],
			"stateMutability": "nonpayable",
			"type": "constructor"
		},
		{
			"stateMutability": "payable",
			"type": "fallback"
		},
		{
			"inputs": [],
			"name": "fund",
			"outputs": [],
			"stateMutability": "payable",
			"type": "function"
		},
		{
			"inputs": [
				{
					"internalType": "uint256",
					"name": "weiAmount",
					"type": "uint256"
				}
			],
			"name": "getCurrecntPrice",
			"outputs": [
				{
					"internalType": "uint256",
					"name": "",
					"type": "uint256"
				}
			],
			"stateMutability": "view",
			"type": "function"
		},
		{
			"inputs": [
				{
					"internalType": "address",
					"name": "",
					"type": "address"
				}
			],
			"name": "usersAmountFunded",
			"outputs": [
				{
					"internalType": "uint256",
					"name": "",
					"type": "uint256"
				}
			],
			"stateMutability": "view",
			"type": "function"
		},
		{
			"inputs": [],
			"name": "withdraw",
			"outputs": [],
			"stateMutability": "payable",
			"type": "function"
		},
		{
			"stateMutability": "payable",
			"type": "receive"
		}
	]
}