{
	"data": {
		"bytecode": {
			"linkReferences": {},
			"object": "60a0604052348015600e575f5ffd5b503373ffffffffffffffffffffffffffffffffffffffff1660808173ffffffffffffffffffffffffffffffffffffffff16815250506080516108c761005b5f395f6101d501526108c75ff3fe60806040526004361061004d575f3560e01c80632834a60d146100665780633ccfd60b146100a257806398d5fdca146100ac578063b60d4288146100d6578063cd6345b4146100e05761005c565b3661005c5761005a61011c565b005b61006461011c565b005b348015610071575f5ffd5b5061008c6004803603810190610087919061045c565b6101bf565b604051610099919061049f565b60405180910390f35b6100aa6101d3565b005b3480156100b7575f5ffd5b506100c061030c565b6040516100cd919061049f565b60405180910390f35b6100de61011c565b005b3480156100eb575f5ffd5b50610106600480360381019061010191906104e2565b61031a565b604051610113919061049f565b60405180910390f35b6302faf08061012a3461032b565b101561016b576040517f08c379a000000000000000000000000000000000000000000000000000000000815260040161016290610567565b60405180910390fd5b345f5f3373ffffffffffffffffffffffffffffffffffffffff1673ffffffffffffffffffffffffffffffffffffffff1681526020019081526020015f205f8282546101b691906105b2565b92505081905550565b5f602052805f5260405f205f915090505481565b7f000000000000000000000000000000000000000000000000000000000000000073ffffffffffffffffffffffffffffffffffffffff163373ffffffffffffffffffffffffffffffffffffffff1614610261576040517f08c379a00000000000000000000000000000000000000000000000000000000081526004016102589061062f565b60405180910390fd5b5f3373ffffffffffffffffffffffffffffffffffffffff16476040516102869061067a565b5f6040518083038185875af1925050503d805f81146102c0576040519150601f19603f3d011682016040523d82523d5f602084013e6102c5565b606091505b5050905080610309576040517f08c379a0000000000000000000000000000000000000000000000000000000008152600401610300906106d8565b60405180910390fd5b50565b5f610315610359565b905090565b5f6103248261032b565b9050919050565b5f670de0b6b3a76400008261033e610359565b61034891906106f6565b6103529190610764565b9050919050565b5f5f73694aa1769357215de4fac081bf1f309adc32530690505f8173ffffffffffffffffffffffffffffffffffffffff1663feaf968c6040518163ffffffff1660e01b815260040160a060405180830381865afa1580156103bc573d5f5f3e3d5ffd5b505050506040513d601f19601f820116820180604052508101906103e0919061081a565b5050509150506402540be400816103f791906106f6565b9250505090565b5f5ffd5b5f73ffffffffffffffffffffffffffffffffffffffff82169050919050565b5f61042b82610402565b9050919050565b61043b81610421565b8114610445575f5ffd5b50565b5f8135905061045681610432565b92915050565b5f60208284031215610471576104706103fe565b5b5f61047e84828501610448565b91505092915050565b5f819050919050565b61049981610487565b82525050565b5f6020820190506104b25f830184610490565b92915050565b6104c181610487565b81146104cb575f5ffd5b50565b5f813590506104dc816104b8565b92915050565b5f602082840312156104f7576104f66103fe565b5b5f610504848285016104ce565b91505092915050565b5f82825260208201905092915050565b7f73656e64206d6f726520455448000000000000000000000000000000000000005f82015250565b5f610551600d8361050d565b915061055c8261051d565b602082019050919050565b5f6020820190508181035f83015261057e81610545565b9050919050565b7f4e487b71000000000000000000000000000000000000000000000000000000005f52601160045260245ffd5b5f6105bc82610487565b91506105c783610487565b92508282019050808211156105df576105de610585565b5b92915050565b7f6f6e6c79206f776e6572000000000000000000000000000000000000000000005f82015250565b5f610619600a8361050d565b9150610624826105e5565b602082019050919050565b5f6020820190508181035f8301526106468161060d565b9050919050565b5f81905092915050565b50565b5f6106655f8361064d565b915061067082610657565b5f82019050919050565b5f6106848261065a565b9150819050919050565b7f7769746864726177206661696c640000000000000000000000000000000000005f82015250565b5f6106c2600e8361050d565b91506106cd8261068e565b602082019050919050565b5f6020820190508181035f8301526106ef816106b6565b9050919050565b5f61070082610487565b915061070b83610487565b925082820261071981610487565b915082820484148315176107305761072f610585565b5b5092915050565b7f4e487b71000000000000000000000000000000000000000000000000000000005f52601260045260245ffd5b5f61076e82610487565b915061077983610487565b92508261078957610788610737565b5b828204905092915050565b5f69ffffffffffffffffffff82169050919050565b6107b281610794565b81146107bc575f5ffd5b50565b5f815190506107cd816107a9565b92915050565b5f819050919050565b6107e5816107d3565b81146107ef575f5ffd5b50565b5f81519050610800816107dc565b92915050565b5f81519050610814816104b8565b92915050565b5f5f5f5f5f60a08688031215610833576108326103fe565b5b5f610840888289016107bf565b9550506020610851888289016107f2565b945050604061086288828901610806565b935050606061087388828901610806565b9250506080610884888289016107bf565b915050929550929590935056fea2646970667358221220613c703514bc748a475247470f0bbedcdd432db5893002a1262af92f5cf63e3564736f6c634300081e0033",
			"opcodes": "PUSH1 0xA0 PUSH1 0x40 MSTORE CALLVALUE DUP1 ISZERO PUSH1 0xE JUMPI PUSH0 PUSH0 REVERT JUMPDEST POP CALLER PUSH20 0xFFFFFFFFFFFFFFFFFFFFFFFFFFFFFFFFFFFFFFFF AND PUSH1 0x80 DUP2 PUSH20 0xFFFFFFFFFFFFFFFFFFFFFFFFFFFFFFFFFFFFFFFF AND DUP2 MSTORE POP POP PUSH1 0x80 MLOAD PUSH2 0x8C7 PUSH2 0x5B PUSH0 CODECOPY PUSH0 PUSH2 0x1D5 ADD MSTORE PUSH2 0x8C7 PUSH0 RETURN INVALID PUSH1 0x80 PUSH1 0x40 MSTORE PUSH1 0x4 CALLDATASIZE LT PUSH2 0x4D JUMPI PUSH0 CALLDATALOAD PUSH1 0xE0 SHR DUP1 PUSH4 0x2834A60D EQ PUSH2 0x66 JUMPI DUP1 PUSH4 0x3CCFD60B EQ PUSH2 0xA2 JUMPI DUP1 PUSH4 0x98D5FDCA EQ PUSH2 0xAC JUMPI DUP1 PUSH4 0xB60D4288 EQ PUSH2 0xD6 JUMPI DUP1 PUSH4 0xCD6345B4 EQ PUSH2 0xE0 JUMPI PUSH2 0x5C JUMP JUMPDEST CALLDATASIZE PUSH2 0x5C JUMPI PUSH2 0x5A PUSH2 0x11C JUMP JUMPDEST STOP JUMPDEST PUSH2 0x64 PUSH2 0x11C JUMP JUMPDEST STOP JUMPDEST CALLVALUE DUP1 ISZERO PUSH2 0x71 JUMPI PUSH0 PUSH0 REVERT JUMPDEST POP PUSH2 0x8C PUSH1 0x4 DUP1 CALLDATASIZE SUB DUP2 ADD SWAP1 PUSH2 0x87 SWAP2 SWAP1 PUSH2 0x45C JUMP JUMPDEST PUSH2 0x1BF JUMP JUMPDEST PUSH1 0x40 MLOAD PUSH2 0x99 SWAP2 SWAP1 PUSH2 0x49F JUMP JUMPDEST PUSH1 0x40 MLOAD DUP1 SWAP2 SUB SWAP1 RETURN JUMPDEST PUSH2 0xAA PUSH2 0x1D3 JUMP JUMPDEST STOP JUMPDEST CALLVALUE DUP1 ISZERO PUSH2 0xB7 JUMPI PUSH0 PUSH0 REVERT JUMPDEST POP PUSH2 0xC0 PUSH2 0x30C JUMP JUMPDEST PUSH1 0x40 MLOAD PUSH2 0xCD SWAP2 SWAP1 PUSH2 0x49F JUMP JUMPDEST PUSH1 0x40 MLOAD DUP1 SWAP2 SUB SWAP1 RETURN JUMPDEST PUSH2 0xDE PUSH2 0x11C JUMP JUMPDEST STOP JUMPDEST CALLVALUE DUP1 ISZERO PUSH2 0xEB JUMPI PUSH0 PUSH0 REVERT JUMPDEST POP PUSH2 0x106 PUSH1 0x4 DUP1 CALLDATASIZE SUB DUP2 ADD SWAP1 PUSH2 0x101 SWAP2 SWAP1 PUSH2 0x4E2 JUMP JUMPDEST PUSH2 0x31A JUMP JUMPDEST PUSH1 0x40 MLOAD PUSH2 0x113 SWAP2 SWAP1 PUSH2 0x49F JUMP JUMPDEST PUSH1 0x40 MLOAD DUP1 SWAP2 SUB SWAP1 RETURN JUMPDEST PUSH4 0x2FAF080 PUSH2 0x12A CALLVALUE PUSH2 0x32B JUMP JUMPDEST LT ISZERO PUSH2 0x16B JUMPI PUSH1 0x40 MLOAD PUSH32 0x8C379A000000000000000000000000000000000000000000000000000000000 DUP2 MSTORE PUSH1 0x4 ADD PUSH2 0x162 SWAP1 PUSH2 0x567 JUMP JUMPDEST PUSH1 0x40 MLOAD DUP1 SWAP2 SUB SWAP1 REVERT JUMPDEST CALLVALUE PUSH0 PUSH0 CALLER PUSH20 0xFFFFFFFFFFFFFFFFFFFFFFFFFFFFFFFFFFFFFFFF AND PUSH20 0xFFFFFFFFFFFFFFFFFFFFFFFFFFFFFFFFFFFFFFFF AND DUP2 MSTORE PUSH1 0x20 ADD SWAP1 DUP2 MSTORE PUSH1 0x20 ADD PUSH0 KECCAK256 PUSH0 DUP3 DUP3 SLOAD PUSH2 0x1B6 SWAP2 SWAP1 PUSH2 0x5B2 JUMP JUMPDEST SWAP3 POP POP DUP2 SWAP1 SSTORE POP JUMP JUMPDEST PUSH0 PUSH1 0x20 MSTORE DUP1 PUSH0 MSTORE PUSH1 0x40 PUSH0 KECCAK256 PUSH0 SWAP2 POP SWAP1 POP SLOAD DUP2 JUMP JUMPDEST PUSH32 0x0 PUSH20 0xFFFFFFFFFFFFFFFFFFFFFFFFFFFFFFFFFFFFFFFF AND CALLER PUSH20 0xFFFFFFFFFFFFFFFFFFFFFFFFFFFFFFFFFFFFFFFF AND EQ PUSH2 0x261 JUMPI PUSH1 0x40 MLOAD PUSH32 0x8C379A000000000000000000000000000000000000000000000000000000000 DUP2 MSTORE PUSH1 0x4 ADD PUSH2 0x258 SWAP1 PUSH2 0x62F JUMP JUMPDEST PUSH1 0x40 MLOAD DUP1 SWAP2 SUB SWAP1 REVERT JUMPDEST PUSH0 CALLER PUSH20 0xFFFFFFFFFFFFFFFFFFFFFFFFFFFFFFFFFFFFFFFF AND SELFBALANCE PUSH1 0x40 MLOAD PUSH2 0x286 SWAP1 PUSH2 0x67A JUMP JUMPDEST PUSH0 PUSH1 0x40 MLOAD DUP1 DUP4 SUB DUP2 DUP6 DUP8 GAS CALL SWAP3 POP POP POP RETURNDATASIZE DUP1 PUSH0 DUP2 EQ PUSH2 0x2C0 JUMPI PUSH1 0x40 MLOAD SWAP2 POP PUSH1 0x1F NOT PUSH1 0x3F RETURNDATASIZE ADD AND DUP3 ADD PUSH1 0x40 MSTORE RETURNDATASIZE DUP3 MSTORE RETURNDATASIZE PUSH0 PUSH1 0x20 DUP5 ADD RETURNDATACOPY PUSH2 0x2C5 JUMP JUMPDEST PUSH1 0x60 SWAP2 POP JUMPDEST POP POP SWAP1 POP DUP1 PUSH2 0x309 JUMPI PUSH1 0x40 MLOAD PUSH32 0x8C379A000000000000000000000000000000000000000000000000000000000 DUP2 MSTORE PUSH1 0x4 ADD PUSH2 0x300 SWAP1 PUSH2 0x6D8 JUMP JUMPDEST PUSH1 0x40 MLOAD DUP1 SWAP2 SUB SWAP1 REVERT JUMPDEST POP JUMP JUMPDEST PUSH0 PUSH2 0x315 PUSH2 0x359 JUMP JUMPDEST SWAP1 POP SWAP1 JUMP JUMPDEST PUSH0 PUSH2 0x324 DUP3 PUSH2 0x32B JUMP JUMPDEST SWAP1 POP SWAP2 SWAP1 POP JUMP JUMPDEST PUSH0 PUSH8 0xDE0B6B3A7640000 DUP3 PUSH2 0x33E PUSH2 0x359 JUMP JUMPDEST PUSH2 0x348 SWAP2 SWAP1 PUSH2 0x6F6 JUMP JUMPDEST PUSH2 0x352 SWAP2 SWAP1 PUSH2 0x764 JUMP JUMPDEST SWAP1 POP SWAP2 SWAP1 POP JUMP JUMPDEST PUSH0 PUSH0 PUSH20 0x694AA1769357215DE4FAC081BF1F309ADC325306 SWAP1 POP PUSH0 DUP2 PUSH20 0xFFFFFFFFFFFFFFFFFFFFFFFFFFFFFFFFFFFFFFFF AND PUSH4 0xFEAF968C PUSH1 0x40 MLOAD DUP2 PUSH4 0xFFFFFFFF AND PUSH1 0xE0 SHL DUP2 MSTORE PUSH1 0x4 ADD PUSH1 0xA0 PUSH1 0x40 MLOAD DUP1 DUP4 SUB DUP2 DUP7 GAS STATICCALL ISZERO DUP1 ISZERO PUSH2 0x3BC JUMPI RETURNDATASIZE PUSH0 PUSH0 RETURNDATACOPY RETURNDATASIZE PUSH0 REVERT JUMPDEST POP POP POP POP PUSH1 0x40 MLOAD RETURNDATASIZE PUSH1 0x1F NOT PUSH1 0x1F DUP3 ADD AND DUP3 ADD DUP1 PUSH1 0x40 MSTORE POP DUP2 ADD SWAP1 PUSH2 0x3E0 SWAP2 SWAP1 PUSH2 0x81A JUMP JUMPDEST POP POP POP SWAP2 POP POP PUSH5 0x2540BE400 DUP2 PUSH2 0x3F7 SWAP2 SWAP1 PUSH2 0x6F6 JUMP JUMPDEST SWAP3 POP POP POP SWAP1 JUMP JUMPDEST PUSH0 PUSH0 REVERT JUMPDEST PUSH0 PUSH20 0xFFFFFFFFFFFFFFFFFFFFFFFFFFFFFFFFFFFFFFFF DUP3 AND SWAP1 POP SWAP2 SWAP1 POP JUMP JUMPDEST PUSH0 PUSH2 0x42B DUP3 PUSH2 0x402 JUMP JUMPDEST SWAP1 POP SWAP2 SWAP1 POP JUMP JUMPDEST PUSH2 0x43B DUP2 PUSH2 0x421 JUMP JUMPDEST DUP2 EQ PUSH2 0x445 JUMPI PUSH0 PUSH0 REVERT JUMPDEST POP JUMP JUMPDEST PUSH0 DUP2 CALLDATALOAD SWAP1 POP PUSH2 0x456 DUP2 PUSH2 0x432 JUMP JUMPDEST SWAP3 SWAP2 POP POP JUMP JUMPDEST PUSH0 PUSH1 0x20 DUP3 DUP5 SUB SLT ISZERO PUSH2 0x471 JUMPI PUSH2 0x470 PUSH2 0x3FE JUMP JUMPDEST JUMPDEST PUSH0 PUSH2 0x47E DUP5 DUP3 DUP6 ADD PUSH2 0x448 JUMP JUMPDEST SWAP2 POP POP SWAP3 SWAP2 POP POP JUMP JUMPDEST PUSH0 DUP2 SWAP1 POP SWAP2 SWAP1 POP JUMP JUMPDEST PUSH2 0x499 DUP2 PUSH2 0x487 JUMP JUMPDEST DUP3 MSTORE POP POP JUMP JUMPDEST PUSH0 PUSH1 0x20 DUP3 ADD SWAP1 POP PUSH2 0x4B2 PUSH0 DUP4 ADD DUP5 PUSH2 0x490 JUMP JUMPDEST SWAP3 SWAP2 POP POP JUMP JUMPDEST PUSH2 0x4C1 DUP2 PUSH2 0x487 JUMP JUMPDEST DUP2 EQ PUSH2 0x4CB JUMPI PUSH0 PUSH0 REVERT JUMPDEST POP JUMP JUMPDEST PUSH0 DUP2 CALLDATALOAD SWAP1 POP PUSH2 0x4DC DUP2 PUSH2 0x4B8 JUMP JUMPDEST SWAP3 SWAP2 POP POP JUMP JUMPDEST PUSH0 PUSH1 0x20 DUP3 DUP5 SUB SLT ISZERO PUSH2 0x4F7 JUMPI PUSH2 0x4F6 PUSH2 0x3FE JUMP JUMPDEST JUMPDEST PUSH0 PUSH2 0x504 DUP5 DUP3 DUP6 ADD PUSH2 0x4CE JUMP JUMPDEST SWAP2 POP POP SWAP3 SWAP2 POP POP JUMP JUMPDEST PUSH0 DUP3 DUP3 MSTORE PUSH1 0x20 DUP3 ADD SWAP1 POP SWAP3 SWAP2 POP POP JUMP JUMPDEST PUSH32 0x73656E64206D6F72652045544800000000000000000000000000000000000000 PUSH0 DUP3 ADD MSTORE POP JUMP JUMPDEST PUSH0 PUSH2 0x551 PUSH1 0xD DUP4 PUSH2 0x50D JUMP JUMPDEST SWAP2 POP PUSH2 0x55C DUP3 PUSH2 0x51D JUMP JUMPDEST PUSH1 0x20 DUP3 ADD SWAP1 POP SWAP2 SWAP1 POP JUMP JUMPDEST PUSH0 PUSH1 0x20 DUP3 ADD SWAP1 POP DUP2 DUP2 SUB PUSH0 DUP4 ADD MSTORE PUSH2 0x57E DUP2 PUSH2 0x545 JUMP JUMPDEST SWAP1 POP SWAP2 SWAP1 POP JUMP JUMPDEST PUSH32 0x4E487B7100000000000000000000000000000000000000000000000000000000 PUSH0 MSTORE PUSH1 0x11 PUSH1 0x4 MSTORE PUSH1 0x24 PUSH0 REVERT JUMPDEST PUSH0 PUSH2 0x5BC DUP3 PUSH2 0x487 JUMP JUMPDEST SWAP2 POP PUSH2 0x5C7 DUP4 PUSH2 0x487 JUMP JUMPDEST SWAP3 POP DUP3 DUP3 ADD SWAP1 POP DUP1 DUP3 GT ISZERO PUSH2 0x5DF JUMPI PUSH2 0x5DE PUSH2 0x585 JUMP JUMPDEST JUMPDEST SWAP3 SWAP2 POP POP JUMP JUMPDEST PUSH32 0x6F6E6C79206F776E657200000000000000000000000000000000000000000000 PUSH0 DUP3 ADD MSTORE POP JUMP JUMPDEST PUSH0 PUSH2 0x619 PUSH1 0xA DUP4 PUSH2 0x50D JUMP JUMPDEST SWAP2 POP PUSH2 0x624 DUP3 PUSH2 0x5E5 JUMP JUMPDEST PUSH1 0x20 DUP3 ADD SWAP1 POP SWAP2 SWAP1 POP JUMP JUMPDEST PUSH0 PUSH1 0x20 DUP3 ADD SWAP1 POP DUP2 DUP2 SUB PUSH0 DUP4 ADD MSTORE PUSH2 0x646 DUP2 PUSH2 0x60D JUMP JUMPDEST SWAP1 POP SWAP2 SWAP1 POP JUMP JUMPDEST PUSH0 DUP2 SWAP1 POP SWAP3 SWAP2 POP POP JUMP JUMPDEST POP JUMP JUMPDEST PUSH0 PUSH2 0x665 PUSH0 DUP4 PUSH2 0x64D JUMP JUMPDEST SWAP2 POP PUSH2 0x670 DUP3 PUSH2 0x657 JUMP JUMPDEST PUSH0 DUP3 ADD SWAP1 POP SWAP2 SWAP1 POP JUMP JUMPDEST PUSH0 PUSH2 0x684 DUP3 PUSH2 0x65A JUMP JUMPDEST SWAP2 POP DUP2 SWAP1 POP SWAP2 SWAP1 POP JUMP JUMPDEST PUSH32 0x7769746864726177206661696C64000000000000000000000000000000000000 PUSH0 DUP3 ADD MSTORE POP JUMP JUMPDEST PUSH0 PUSH2 0x6C2 PUSH1 0xE DUP4 PUSH2 0x50D JUMP JUMPDEST SWAP2 POP PUSH2 0x6CD DUP3 PUSH2 0x68E JUMP JUMPDEST PUSH1 0x20 DUP3 ADD SWAP1 POP SWAP2 SWAP1 POP JUMP JUMPDEST PUSH0 PUSH1 0x20 DUP3 ADD SWAP1 POP DUP2 DUP2 SUB PUSH0 DUP4 ADD MSTORE PUSH2 0x6EF DUP2 PUSH2 0x6B6 JUMP JUMPDEST SWAP1 POP SWAP2 SWAP1 POP JUMP JUMPDEST PUSH0 PUSH2 0x700 DUP3 PUSH2 0x487 JUMP JUMPDEST SWAP2 POP PUSH2 0x70B DUP4 PUSH2 0x487 JUMP JUMPDEST SWAP3 POP DUP3 DUP3 MUL PUSH2 0x719 DUP2 PUSH2 0x487 JUMP JUMPDEST SWAP2 POP DUP3 DUP3 DIV DUP5 EQ DUP4 ISZERO OR PUSH2 0x730 JUMPI PUSH2 0x72F PUSH2 0x585 JUMP JUMPDEST JUMPDEST POP SWAP3 SWAP2 POP POP JUMP JUMPDEST PUSH32 0x4E487B7100000000000000000000000000000000000000000000000000000000 PUSH0 MSTORE PUSH1 0x12 PUSH1 0x4 MSTORE PUSH1 0x24 PUSH0 REVERT JUMPDEST PUSH0 PUSH2 0x76E DUP3 PUSH2 0x487 JUMP JUMPDEST SWAP2 POP PUSH2 0x779 DUP4 PUSH2 0x487 JUMP JUMPDEST SWAP3 POP DUP3 PUSH2 0x789 JUMPI PUSH2 0x788 PUSH2 0x737 JUMP JUMPDEST JUMPDEST DUP3 DUP3 DIV SWAP1 POP SWAP3 SWAP2 POP POP JUMP JUMPDEST PUSH0 PUSH10 0xFFFFFFFFFFFFFFFFFFFF DUP3 AND SWAP1 POP SWAP2 SWAP1 POP JUMP JUMPDEST PUSH2 0x7B2 DUP2 PUSH2 0x794 JUMP JUMPDEST DUP2 EQ PUSH2 0x7BC JUMPI PUSH0 PUSH0 REVERT JUMPDEST POP JUMP JUMPDEST PUSH0 DUP2 MLOAD SWAP1 POP PUSH2 0x7CD DUP2 PUSH2 0x7A9 JUMP JUMPDEST SWAP3 SWAP2 POP POP JUMP JUMPDEST PUSH0 DUP2 SWAP1 POP SWAP2 SWAP1 POP JUMP JUMPDEST PUSH2 0x7E5 DUP2 PUSH2 0x7D3 JUMP JUMPDEST DUP2 EQ PUSH2 0x7EF JUMPI PUSH0 PUSH0 REVERT JUMPDEST POP JUMP JUMPDEST PUSH0 DUP2 MLOAD SWAP1 POP PUSH2 0x800 DUP2 PUSH2 0x7DC JUMP JUMPDEST SWAP3 SWAP2 POP POP JUMP JUMPDEST PUSH0 DUP2 MLOAD SWAP1 POP PUSH2 0x814 DUP2 PUSH2 0x4B8 JUMP JUMPDEST SWAP3 SWAP2 POP POP JUMP JUMPDEST PUSH0 PUSH0 PUSH0 PUSH0 PUSH0 PUSH1 0xA0 DUP7 DUP9 SUB SLT ISZERO PUSH2 0x833 JUMPI PUSH2 0x832 PUSH2 0x3FE JUMP JUMPDEST JUMPDEST PUSH0 PUSH2 0x840 DUP9 DUP3 DUP10 ADD PUSH2 0x7BF JUMP JUMPDEST SWAP6 POP POP PUSH1 0x20 PUSH2 0x851 DUP9 DUP3 DUP10 ADD PUSH2 0x7F2 JUMP JUMPDEST SWAP5 POP POP PUSH1 0x40 PUSH2 0x862 DUP9 DUP3 DUP10 ADD PUSH2 0x806 JUMP JUMPDEST SWAP4 POP POP PUSH1 0x60 PUSH2 0x873 DUP9 DUP3 DUP10 ADD PUSH2 0x806 JUMP JUMPDEST SWAP3 POP POP PUSH1 0x80 PUSH2 0x884 DUP9 DUP3 DUP10 ADD PUSH2 0x7BF JUMP JUMPDEST SWAP2 POP POP SWAP3 SWAP6 POP SWAP3 SWAP6 SWAP1 SWAP4 POP JUMP INVALID LOG2 PUSH5 0x6970667358 0x22 SLT KECCAK256 PUSH2 0x3C70 CALLDATALOAD EQ 0xBC PUSH21 0x8A475247470F0BBEDCDD432DB5893002A1262AF92F TLOAD 0xF6 RETURNDATACOPY CALLDATALOAD PUSH5 0x736F6C6343 STOP ADDMOD 0x1E STOP CALLER "
		},
		"gasEstimates": {
			"creation": {
				"codeDepositCost": "449400",
				"executionCost": "infinite",
				"totalCost": "infinite"
			},
			"external": {
				"": "infinite",
				"fund()": "infinite",
				"getCurrecntPrice(uint256)": "infinite",
				"getPrice()": "infinite",
				"usersAmountFunded(address)": "2779",
				"withdraw()": "infinite"
			}
		},
		"methodIdentifiers": {
			"fund()": "b60d4288",
			"getCurrecntPrice(uint256)": "cd6345b4",
			"getPrice()": "98d5fdca",
			"usersAmountFunded(address)": "2834a60d",
			"withdraw()": "3ccfd60b"
		}
	},
	"abi": [
		{
			"inputs": [],
			"stateMutability": "nonpayable",
			"type": "constructor"
		},
		{
			"stateMutability": "payable",
			"type": "fallback"
		},
		{
			"inputs": [],
			"name": "fund",
			"outputs": [],
			"stateMutability": "payable",
			"type": "function"
		},
		{
			"inputs": [
				{
					"internalType": "uint256",
					"name": "weiAmount",
					"type": "uint256"
				}
			],
			"name": "getCurrecntPrice",
			"outputs": [
				{
					"internalType": "uint256",
					"name": "",
					"type": "uint256"
				}
			],
			"stateMutability": "view",
			"type": "function"
		},
		{
			"inputs": [],
			"name": "getPrice",
			"outputs": [
				{
					"internalType": "uint256",
					"name": "",
					"type": "uint256"
				}
			],
			"stateMutability": "view",
			"type": "function"
		},
		{
			"inputs": [
				{
					"internalType": "address",
					"name": "",
					"type": "address"
				}
			],
			"name": "usersAmountFunded",
			"outputs": [
				{
					"internalType": "uint256",
					"name": "",
					"type": "uint256"
				}
			],
			"stateMutability": "view",
			"type": "function"
		},
		{
			"inputs": [],
			"name": "withdraw",
			"outputs": [],
			"stateMutability": "payable",
			"type": "function"
		},
		{
			"stateMutability": "payable",
			"type": "receive"
		}
	]
}